:10000000B820002001060000FD050000FD050000ED
:1000100000000000000000000000000000000000E0
:10002000000000000000000000000000FD050000CE
:100030000000000000000000FD0500005107000066
:10004000FD050000FD050000FD050000FD050000A8
:10005000FD050000FD050000FD050000FD05000098
:10006000FD050000FD050000FD050000FD05000088
:10007000FD050000FD050000FD050000FD05000078
:10008000FD050000FD050000FD050000FD05000068
:10009000FD0500000000000000000000FD0500005C
:1000A000FD05000000000000FD050000000000004C
:1000B0000000000010B5064C2378002B07D1054B3B
:1000C000002B02D0044800E000BF0123237010BDC4
:1000D00004000020000000001408000008B5084BD0
:1000E000002B03D00748084900E000BF0748036819
:1000F000002B00D108BD064B002BFBD09847F9E739
:10010000000000001408000008000020140800008F
:10011000000000000C4B1B68002B10D1EFF3108384
:10012000002B09D172B6BFF35F8F0022074B1A7004
:100130000132074B1A7002E00022054B1A70024A86
:100140001368013313607047200000200000002076
:1001500024000020084B1A68013A1A601B68002B23
:1001600009D1064B1B78002B05D00122044B1A70D5
:10017000BFF35F8F62B6704720000020240000208C
:1001800000000020F0B583B001AC012565700027A8
:10019000A77025701320211C064EB0478022120341
:1001A000054B9A61277065701C20211CB04703B075
:1001B000F0BDC046BD0100000044004100B583B061
:1001C00001AB80221A700A785A704A789A708A783D
:1001D000DA70191C014B984703B000BD9D05000063
:1001E00070B50C4C236A0178857842780120024072
:1001F00092014026B3431343021C2A40D2017F30B0
:100200008343134303220A40120203490B40134362
:10021000236270BD00080040FFFCFFFF082803D8E0
:100220008000254B1B589F46172044E0234A116A43
:1002300002230B43136200203DE0204A9169022310
:100240000B439361002036E01C4A118A02230B43C2
:10025000138200202FE0194A918A02230B439382D4
:10026000002028E016490B68022213430B60134B51
:100270009A84191C0E32CB681A42FCD0104A91683D
:100280000E4BD96252689A6200229A84191C10326D
:10029000CB681A42FCD00A4B1B689BB2074A938476
:1002A000002008E005494422885C022303438B5464
:1002B000002000E000207047D00700000008004048
:1002C0002800002030B585B0C222D2001A4B9A60B7
:1002D0001A4A53681E218B43536001236A461370E8
:1002E0000024174DE0B26946A8470134252CF9D106
:1002F00003A800244470012585700470114B9847B1
:100300000620114B9847114B9847114B1C725C7299
:100310009C72DC7201956B465C7006236A46137012
:1003200014725472002069460A4B984700200A4B09
:10033000984705B030BDC04600080040004000416D
:10034000D9040000E10100001D0200005D0300006F
:10035000000400408103000039040000064A91694E
:1003600008230B4393610122044B1A70191C0B786C
:100370001342FCD17047C04600040040000C00400E
:1003800070B5061C041C0D782D0205434B78002B1C
:1003900002D08023DB021D434B7A002B02D0802346
:1003A0001B031D434868012818D9431E184210D169
:1003B000022806D90223002201325B009842FBD8B2
:1003C00000E0002212023243141C80235B031D4311
:1003D00004E00402344380239B021D430B7A002B6C
:1003E00002D080239B031D430F4A53785BB2002B3E
:1003F000FBDB0E4B98470E4B1E700B4A53785BB2DB
:10040000002BFBDB084B9C601A1C53785BB2002B63
:10041000FBDB054A516880235B020B401D4355609E
:10042000044B984770BDC046000C00401501000009
:10043000080C00405501000010B5041C0B4A53780D
:100440005BB2002BFBDB0A4B98470A4B1C70074A38
:1004500053785BB2002BFBDB044A536880214902CE
:100460000B435360044B984710BDC046000C00403E
:1004700015010000040C00405501000010B5041CDB
:100480000F4B98470F4B1C700F4B5A881205100FDB
:1004900059880E4A0A405A8059880D4A0A405A80A3
:1004A000191C8022D2014B881342FCD1064902025A
:1004B0004888064B034013434B80064B984710BDBA
:1004C00015010000020C0040000C0040FFF0FFFF8F
:1004D000FFBFFFFF5501000010B50C782402044354
:1004E000024B9847A4B2024B5C8010BD7D04000013
:1004F000000C004030B5D378002B1ED11478802C2E
:1005000004D0240680235B021C4300E000245378BF
:100510000225AB430AD19378002B03D180239B02A1
:100520001C4302E0C023DB021C4341605378013BC3
:10053000012B12D8184B1C400FE041600B041B0C20
:10054000A024E405234383620B0CD0242406234318
:100550008362D378002B18D01CE00B041B0CA02561
:10056000ED052B43234383620B0CD0252D062B4333
:1005700023438362D378002B0CD1630305D5937892
:10058000012B01D1816100E041615378013B012BD6
:1005900000D8816030BDC046FFFFFBFF08B5031CDB
:1005A0000A1CC1090020002904D15809C0010549CD
:1005B0008C4660441F210B401E399940024B9847DE
:1005C00008BDC04600440041F50400007047C04625
:1005D00008B5054B9847054B9847054B9847054B81
:1005E0009847054B984708BDC502000085010000EB
:1005F000CD050000CD050000CD050000FEE7C0469A
:1006000070B52E4B2E4A9A4203D02E4B2B4A9A425B
:1006100004D32D4B2D4A9A4210D31EE02C4A294B6D
:1006200003339B1A9B0801339B0000222348244973
:100630008C58845004329A42FAD1EAE7254A224B78
:1006400003339B1A9B0801339B0000221F480021A3
:100650001418216004329A42FAD11F4AFF211F4B1D
:100660008B439360FD3990235B001D4AD1501D4898
:10067000C3780324A34302221343C370C3780C2618
:10068000B34308210B43C370174B987B3025A84315
:10069000051C202028439873987BB043014399732D
:1006A000997BA1430A439A73104A516880230B43F4
:1006B00053600F4B98470F4B9847FEE70000002010
:1006C0001408000004000020B800002004000020EE
:1006D000040000200800002000ED00E00000000001
:1006E00000700041005000410048004100400041BE
:1006F000850700006107000000B583B08000074B4C
:10070000C15001AB01225A70002098701A70081C69
:10071000191C034B984703B000BDC04640000020A1
:10072000BD0100008000084B1B5CD9090022002994
:1007300004D15A09D20105498C4662441F210B405D
:100740001E3999405161704740000020004400412B
:1007500080221203014BDA617047C0460044004119
:1007600008B5054B984700201321044B98470020FB
:10077000034B9847FEE7C046D1050000F90600008C
:10078000250700000E4B70B500251E1C0D4CE41A09
:10079000A410A54204D0AB00F35898470135F8E700
:1007A00000F028F8084B00251E1C084CE41AA41081
:1007B000A54204D0AB00F35898470135F8E770BD67
:1007C0000008000000080000000800000408000005
:1007D000480200002802000028020000B4020000C5
:1007E0003A020000560200002C02000064020000E1
:1007F000A4020000F8B5C046F8BC08BC9E4670478D
:10080000DD000000F8B5C046F8BC08BC9E46704745
:04081000B50000002F
:0408140001000000DF
:0400000300000601F2
:00000001FF
