:1000000030250020A13000009D3000009D30000010
:1000100000000000000000000000000000000000E0
:100020000000000000000000000000009D30000003
:1000300000000000000000009D3000009D30000026
:100040009D3000009D3000009D3000009D3000007C
:100050009D3000009D3000009D3000009D3000006C
:100060009D300000E5120000F512000005130000AD
:100070001513000025130000351300009D3000000B
:100080009D3000009D3000009D3000009D3000003C
:100090009D3000009D3000009D3000009D3000002C
:1000A0009D3000009D3000009D3000009D3000001C
:1000B0000000000010B5064C2378002B07D1054B3B
:1000C000002B02D0044800E000BF0123237010BDC4
:1000D0007C0000200000000004690000084B10B5FF
:1000E000002B03D00749084800E000BF0748036819
:1000F000002B00D110BD064B002BFBD09847F9E731
:100100000000000080000020046900000469000075
:1001100000000000F0B583B06B46DF1DD8710B4EB8
:100120000B4C0122310020000A4DA8478022D20545
:10013000094B5A61012239002000084B98470022E0
:1001400031002000A84703B0F0BDC04608040020DD
:10015000CC03002059150000804400414D160000DA
:10016000F0B591B0604B9847604C31232370002369
:100170006370A37002A901224A708B700A7031204B
:100180005B4B98472378D9090022002904D15A09EA
:10019000D20158498C4662441F263340012529006C
:1001A0009940916102AC257000230393049323745A
:1001B0006374A574E57423752422A354183A0021AE
:1001C00008A84D4B984780235B02E3604B4BA3622A
:1001D00001235B42E3624A4B23634A4B63634A4B0E
:1001E000A3614A4F22004A4938004A4B98473C686D
:1001F0002000494B98470640B540484B1D603A687F
:10020000D369002BFCD1236802221343236001AC85
:10021000012363700022A270237021003E20344D20
:10022000A84721001B20A84700203D4B984736498E
:100230003C4B9847830018184000802212052D4B34
:100240005A6100284AD0384B586000229A60190041
:10025000802252020B681342FCD080221205254BEB
:100260009A61314B586000229A6019008022520234
:100270000B681342FCD0802212051E4B9A61A82005
:100280002A4CA0471F20A047D320A0470020A0470A
:100290004020A047A120A047C820A047DA20A047BF
:1002A0000220A0478120A0478F20A047A420A0477C
:1002B000A620A047D520A0478020A0478D20A0479A
:1002C0001420A047DB20A0474020A047D920A0470A
:1002D000F120A047AF20A04711B0F0BD8022120549
:1002E000044B9A61C7E7C0467D1B0000080400204C
:1002F000DD2A000000440041FF57000002003000EA
:10030000030036000300370040420F00CC030020FA
:10031000001C004245130000B512000000E100E09F
:100320002D2E0000C935000010E000E0150100008E
:10033000F0B583B06B46DF1DD8710B4E0B4C01221C
:10034000310020000A4DA8478022D205094B9A614E
:10035000012239002000084B98470022310020007C
:10036000A84703B0F0BDC04608040020CC0300201D
:1003700059150000804400414D160000014B1860E3
:100380007047C04698000020024B1B68C001181837
:100390004254704798000020024B1B68C001181897
:1003A000405C704798000020F8B504000F0015006D
:1003B000002B03D10D4B9847A84215D02A003900D5
:1003C00020000B4B98470F263440B0202043094CA7
:1003D000A0477806400F10231843A047300038404C
:1003E000A0472800044B9847F8BDC0469903000079
:1003F000890300001501000031030000F8B50D4825
:100400000D4B98470D4B984740200D4B98470025C2
:1004100000260C4F34000123320021002800B84789
:100420000134E4B2802CF6D10135EDB2042DF1D1C6
:10043000F8BDC0469C0000207D0300006101000063
:1004400015010000A9030000F0B5C64600B5040080
:10045000150043B2002B01DB1F2902D904BC9046D2
:10046000F0BDCF08FB00C91A01268E40F3B29846B2
:10047000010038000C4B98470200012D09D0002DD7
:100480000BD0022D0CD0002321003800074CA047D0
:10049000E4E743460343DAB2F5E7B043C2B2F2E71A
:1004A00043464340DAB2EEE799030000A903000097
:1004B00010B5014B984710BD9903000030B58FB0BF
:1004C00001AA64230193214B5360002393601373AB
:1004D00013768021890311610121494291822531DE
:1004E00053549362083153540131535401315354DE
:1004F000D7331386164BD382164BD361164B136238
:10050000164C17492000174B984724680722E369C7
:100510001A42FCD123680222134323600F4D28683E
:10052000114B98471F2318401E3B83400F4A13600E
:10053000E88800231021628B0A4204D101338342F0
:10054000F9D3102363830FB030BDC046480D0000BF
:100550001027000003000800030009000C0400201D
:100560000010004269090000B512000000E100E03F
:1005700070B588B007AD0843287000236B7004A9DC
:100580004F20088001244C804D600B724B728B729F
:1005900001AC20806280029523726372A372074EC1
:1005A0003000074B984721003000064B98472B78C6
:1005B0001B026878184308B070BDC0460C040020C8
:1005C000950F0000710F0000D0B50222002100201D
:1005D0001F4B98470300012702040CD41D4A1678CC
:1005E000012E16D0002E0AD0022E1CD0032E25D0AC
:1005F000002000210CE04004430C023FEEE7DB0941
:1006000098B27843144B98470022144B144CA047DF
:10061000D0BD9B0998B278430F4B98470022114BED
:100620000F4CA047F4E75B0998B278430A4B984710
:100630000022FF239B050A4CA047E9E71B0998B25B
:100640007843054B98470022074B054CA047DFE74E
:10065000710500009C020020295500000000E03FC9
:10066000954900000000D03F0000B03F10B51E4A81
:10067000D36904210B43D3611C4B2022FF321A8320
:100680001A7D0523D20701D4180010BD03781B0280
:10069000C022920013404178C901FF220A4013434F
:1006A000817849001E220A401343C27892048021B7
:1006B000C9020A40134302791204C02189020A4088
:1006C00013430A4A536093685B035B0F084908248D
:1006D0009C400C8093684B8043780B71138BDB0537
:1006E000DB0F1B01D0E7C046000400400040004182
:1006F000A002002030B50400224A108853884343EA
:100700008B4206D28022920118201F4BCB189342B5
:100710000ED81E4B5D688022D2022A435A602022E6
:10072000FF321A831B7DDB0703D4184B5D60052065
:1007300030BD452C22D8A300154AD3589F46134BF1
:100740001B8BDB0503D5114B5D601020F0E789089A
:1007500049000E4BD96103E0890849000B4BD96170
:10076000A52000020443094B1C80190001220B7DC7
:100770001342FCD0054B5D600020D9E7034B5D6060
:100780001720D5E7A002002000C07FFF00400041F5
:1007900058630000F8B5254B1D885B886B4318240F
:1007A000834201D22000F8BD6B1E1842FAD1013CF1
:1007B0009542F7D31E4B1B7D123CDB07F2D51D4C37
:1007C0001B4B1C801D0001242B7D2342FCD02024C8
:1007D000FF34174B1C83002A22D0012305009D43C0
:1007E0000023571E09E0CE187678360234432C8059
:1007F00002339BB202359A4204D9CC5CBB42F2DB95
:10080000A4B2F4E7094B1B790024002BCAD13F2A7C
:10081000C8D8002201000420074B98470400C1E714
:10082000024B1B790024002BF3D0BBE7A002002071
:100830000040004144A5FFFFF506000070B5184BCD
:100840001D885B886B431824834201D2200070BD51
:100850006B1E1842FAD1013C9542F7D3114B1B7D18
:10086000123CDB07F2D52024FF340E4B1C83002AF8
:1008700014D0012398430023561E04E002339BB298
:1008800002309A4208D90488A4B2CC54B342F5DAB3
:10089000CD18240A6C70F1E70024D7E70024D5E7CF
:1008A000A002002000400041134B1A885B8853438C
:1008B0001821834201D2080070479200013A104289
:1008C000F9D10E4B1B7D1339DB07F4D50B4B2022DE
:1008D000FF321A8380084000D861094A1A80190043
:1008E00001220B7D1342FCD0044B198B1C200140CC
:1008F000481E81418900DEE7A0020020004000413F
:1009000002A5FFFF134B2022FF321A8399684A0386
:10091000520F08239340037041800F4B1B885B06E6
:100920005B0F072B10D00622D21A0423934043609A
:10093000094B1B8807221340072B08D00722D21A25
:10094000042393408360704700234360F0E7002353
:100950008360F8E700400041004080000168072202
:10096000CB691A42FCD17047F0B5D6464F46464691
:10097000C0B58AB006000F00140031600800A04B1B
:100980009847A04A116A851C0123AB400B431362B0
:1009900009A9237B0B701430C5B228009A4B9847E5
:1009A00028009A4B9847207B0021994B98473B6839
:1009B0001C209B0705D50AB01CBC90469946A24650
:1009C000F0BD3B681738DB07F5D430688C4B99468F
:1009D000984705008F49904B9847AD008F4BEE50DC
:1009E00000233376737600257383B3832522B554B1
:1009F000336214333B60336898461800C847814619
:100A0000802308AA1370557001239370D570E06994
:100A1000276A002800D1AFE008AB1870022308AAAB
:100A20005370000CC0B211007D4B9847002F00D1CD
:100A3000A7E008AB1F70022308AA53703F0CF8B25E
:100A40001100774B9847A38AF380E38A3381237E92
:100A50008022002B04D1734B9B789B07DB0FDA01BC
:100A6000A16823690B4313432422A25C002A02D00D
:100A70008022D2051343A26A13432C22A25C002ACF
:100A800003D180229204914202D1802212051343A5
:100A90002D22A25C002A02D08022120413432E22AF
:100AA000A25C002A02D08022D2031343424612687D
:100AB00013434246136080235B0053604846143062
:100AC000C0B2594B98470790FA239B0022685A43BB
:100AD000914663689A46554DA847009001914B4650
:100AE0005800A84702900391208EA84704900591D2
:100AF0004F4F504A504B00980199B84702000B00E5
:100B000004980599B8474D4E00224D4BB0470490CC
:100B100005914846A84702000B0004980599B8477C
:100B200002000B00474D00980199A847029A039BC9
:100B3000B0470022444BA847029A039B434DA84765
:100B4000434B9847050080239B04A2689A421ED01D
:100B500003004020FF2D00D92DE700240020FF25B1
:100B60001D40240625430004FF231B0418400543B1
:100B70004346DD6000201EE700214046354B984784
:100B80004AE701214046334B9847070051E7FA26D0
:100B9000B60053465E430098019902000B00274CB3
:100BA000A047009001913000204B984700222A4B2B
:100BB000B84702000B0000980199244CA04700227E
:100BC000214B204CA047224B9847041E0CD03100EB
:100BD0000798224B98470238001B2B00FF2D0CD89A
:100BE000FF28BCD94020E6E67100481E079B9C46C2
:100BF00060441A4B98470138EFE74020DBE6C046D7
:100C00001920000000040040452F0000B92E00000C
:100C1000551E0000891000007912000034040020E5
:100C20003D30000000200041612F0000AD55000064
:100C30009549000095D626E80B2E113E0D3D00008B
:100C400000002440954E00000000F03F2D430000BE
:100C5000C1540000A11E000000000840C93500007A
:100C600003681A7E920707D502221A765B8B9B07D0
:100C70004120DB17184070475A8B520706D5596838
:100C8000C02292020A435A601820F4E70020F2E7DB
:100C900030B50268002301240225117E21420BD1C8
:100CA000117E294206D101339BB201899942F4D8C1
:100CB000122002E0002000E0002030BD10B50468E2
:100CC00062688023DB02134363606162024B9847D2
:100CD0000123237610BDC046910C0000F0B5DE461E
:100CE00057464E464546E0B583B00600894605683E
:100CF0004C882B681B01DB0F9A464B7A002B2BD1BB
:100D00006B68584A13406B604B461B7A002B27D107
:100D10004B461B885B004A46527A920313430122DA
:100D200013436B623000504B984701905346002BA1
:100D300003D04B465B88012B3BD06B68494A13407C
:100D40006B60019B002B3AD0019803B03CBC9046ED
:100D50009946A246AB46F0BD897A444B9847CFE707
:100D60004B461B885B004A46527A9203134380220B
:100D7000120213436B6230003B4B984701906B6843
:100D8000384A13406B600028DED13000384B98475A
:100D900001900028D8D14B461B881B0A78221343A8
:100DA0005B004A46527A920301210A4313436B6265
:100DB000B8E76A688023DB0213436B60C1E7300049
:100DC0002B4B984701900028BED1013CA4B280462D
:100DD000284B9B4615E0012C20D03000264B98472D
:100DE00043465F1CBFB22823EB5C4A46526841462B
:100DF000535430001C4B9847013CA4B2002815D135
:100E0000B8465C4514D06B8B9B0627D5F37A002B34
:100E1000E3D05346002BDED1002CDED16A6880235C
:100E2000DB0213436B60013CA4B2EAE7B8460190D1
:100E3000B37A002B09D130000F4B98472823EA5C86
:100E40004B465B6841465A547EE730000A4B984750
:100E50006A68C0239B0213436B60ECE74123019354
:100E600072E7C046FFFFFBFF910C0000BD0C0000C5
:100E7000610C0000FFFF00005D090000F0B5DE46D8
:100E800057464E464546E0B583B006000F0005685C
:100E90004C88324B98477B7A002B1DD16B68304AC7
:100EA00013406B603B7A002B1BD03B885B007A7A47
:100EB000920313438022120213436B623000294BCA
:100EC00098470190002813D0019803B03CBC90468D
:100ED0009946A246AB46F0BDB97A3000224B9847FE
:100EE000DCE73B885B007A7A920313436B62E5E7A9
:100EF00030001E4B9847031E0190E5D1A046002408
:100F000020339946154B9B46164B9A46444515D0BF
:100F10006B8B4A4613421DD03000D8477B681A5D60
:100F20002823EA543000D047002806D16B8B0134C7
:100F30005B07EBD51E23019300E00190B37A002BF1
:100F4000C2D03000054B98476A68C0239B02134308
:100F50006B60B9E741230193B6E7C0465D09000025
:100F6000FFFFFBFF910C0000BD0C0000610C0000B6
:100F700010B5838B9BB20522002B01D0100010BD51
:100F800001338372C372024B98470200F6E7C046F2
:100F9000DD0C000010B5838B9BB20522002B01D025
:100FA000100010BD83720133C372024B98470200D8
:100FB000F6E7C0467D0E000001680722CB691A42A1
:100FC000FCD1704770B5040006683268458B838B8E
:100FD000ED1AADB2838B013B9BB2838313011DD508
:100FE000C37A002B03D0838B9BB2012B10D0A38B31
:100FF0009BB2002B02D1A37A002B1CD12000124BF4
:101000009847236A5D192823F35CDBB22B7070BD0F
:1010100072688023DB0213437360E8E7C37A002B16
:10102000E5D0838B9BB2002BE1D172688023DB0279
:1010300013437360DBE72000034B98477268C023BB
:101040009B0213437360D9E7B90F000070B5040029
:1010500005686B8B5B0703D51E222523C25470BD28
:10106000468B838BF61AB6B2838B013B9BB283838C
:10107000044B9847236A9E193378DBB22822AB547D
:10108000EDE7C046B90F000070B58000754BC4583D
:1010900025682B681B01DA0F637E267E1E40638B5A
:1010A0009BB2002B03D1A38B9BB2002B23D1638B6C
:1010B0009BB2002B08D0A38B9BB2002B04D125330D
:1010C000E35C052B00D16DE0638B9BB2002B24D039
:1010D000A38B9BB2002B20D06B8B9B0600D581E0AD
:1010E000002A04D0A38B9BB2012B00D17AE04122CD
:1010F0002523E25411E02B7EDB0707D501232B7655
:101100006B8B9B072ED541222523E254A38B9BB2E8
:1011100063832523E35C052B38D0638B9BB2002BC4
:1011200007D0A38B9BB2002B03D12533E35C052BA7
:1011300064D02523E35C052B13D02523E35C002B2F
:101140000FD003232B7500236383A3832533E35C34
:10115000412B03D0A37A002B00D075E0730700D594
:101160007BE070BD6B8B5B07D0D518222523E25442
:101170000023A383A37A002BC8D020003A4B9847C2
:101180006A68C0239B0213436B60BFE71F33E35CB5
:10119000002B03D02000354B9847BEE72000344B8E
:1011A0009847BAE71F33E35C002B00D08CE703338A
:1011B0002B750023638325330022E254A37A002B8E
:1011C00007D101232B76F307A7D5E36820009847C2
:1011D000A3E72000244B98476A68C0239B0213436F
:1011E0006B60F0E72423E35C002B03D12000204B4D
:1011F000984792E720001D4B98478EE71F33E35C2A
:10120000012B96D12B7E9B0701D502232B7603233E
:101210002B750023638325330022E254B30703D5E3
:101220002423E35C012B0BD0F30700D481E72423B4
:10123000E35C002B00D07CE7E3682000984778E768
:1012400023692000984774E72000074B98476A6895
:10125000E023DB0213436B6080E76369200098475B
:101260007FE7C04634040020B90F0000C50F00001E
:101270004D10000070470000F0B50A4B1B78002BA2
:101280000CD1094F094E0A4D0024DE515A19146041
:101290000433182BF9D10122024B1A708000024B43
:1012A000C150F0BDA6020020A80200207512000067
:1012B0003404002000B583B009236A46137001335B
:1012C0005370013393700133D370013313710133C1
:1012D0005371034B98476B46185603B000BDC04688
:1012E0001920000010B5024B1B680020984710BD64
:1012F000A802002010B5024B5B680120984710BD82
:10130000A802002010B5024B9B680220984710BD30
:10131000A802002010B5024BDB680320984710BDDF
:10132000A802002010B5024B1B690420984710BD8D
:10133000A802002010B5024B5B690520984710BD3C
:10134000A8020020F0B58BB005000C001600296043
:101350000B681C209B0701D50BB0F0BD0B6817383C
:10136000DB07F9D408006F4B98476F4A116A871C56
:101370000123BB400B43136209A92427F35D0B70C3
:101380001430C3B201931800684B98470198684B1A
:101390009847F05D0021674B98473378012B3FD089
:1013A0003378002B03D123680822134323602B00DA
:1013B0000C3329002831002204C38B42FCD10023C6
:1013C000EB62AB620024AB862B863633EC540133E0
:1013D000EC540133EC54353B6B722C712868514B43
:1013E000984707005449554B9847BF00544BFD5050
:1013F0002F6804AB80221A705C707F3A9A70DC70A0
:101400003378002B02D1002204AB9A70B36A0593A3
:10141000F36A0693336B0793736B089300240BE016
:1014200023680C2213432360BAE73800454B9847E2
:101430000AE00134042C10D0E1B2A30002AA0C206F
:101440001218D0580028F0D0431CF2D004A908701C
:10145000000CC0B23C4B9847EBE733786B71337CA0
:10146000AB71B37CEB71337D2B72002202ABDA805F
:101470003378012B12D03378002B26D1B069B28B90
:101480007B6AF17F0904B47F2143194379622023E9
:10149000F35C002B1BD040231A4318E02868214B33
:1014A00098471430C0B2294B9847010002AB9A1DEF
:1014B000B069274B984703001720002B00D04BE75B
:1014C00002AB06331B783B73D5E70022002073681C
:1014D000B1680B43F1680B430343317C0A43717CD1
:1014E000002903D11B498978890701D580210B4345
:1014F000B17C002902D0802189020A43F17C0029B5
:1015000002D0802189000A43317D002902D0802148
:1015100089010A4339680B433B607B681A437A6050
:10152000002019E71920000000040040452F0000AA
:10153000B92E0000551E00005D1800007912000051
:1015400034040020A11E00003D300000612F000087
:10155000971D00000020004110B544791523012C8F
:1015600001D0180010BD047A0023002CF9D1002A04
:1015700058D04B78002B44D003681B7EDB0710D477
:101580000A78D1090023002904D15309DB012E492F
:101590008C4663441F21114001228A409A61052331
:1015A000DFE70A78D4090023002C04D15309DB01BA
:1015B000254CA44663441F2414400122A2405A61D2
:1015C00003681A7ED20701D58A789A62C27900230D
:1015D000002AC6D102680421137E0B42FCD0117E82
:1015E00000234907BDD5538B5B0701D504235383E3
:1015F0008379012B02D0936A0023B2E7936A002318
:10160000AFE70A78D1090023002904D15309DB018F
:101610000D498C4663441F21114001228A405A61C2
:1016200000239EE70A78D1090023002904D1530939
:10163000DB0105498C4663441F21114001228A4089
:101640009A6100238DE7C04600440041F0B5DE46B4
:1016500057464E464546E0B583B03823C45C333B1D
:10166000052C02D01233002A07D1180003B03CBC6D
:1016700090469946A246AB46F0BD4379002B03D174
:1016800003681C7EA4070AD4934600240123022584
:10169000AC460235A846013A92B28A4623E00224BB
:1016A0001C76F1E7357E61460D422ED1357E1D4216
:1016B00000D1C2E00668357E1D42FCD0671CBFB277
:1016C00051460D5D8179012923D0ADB23C00377EB2
:1016D0001F4202D0ED05ED0DB562551EADB2C679C3
:1016E000002E1DD12A005A4DAA4270D04579002DF6
:1016F000E0D10668357E1D42D4D1564D377E1F425B
:10170000D0D1013D002DF9D1CCE70223337602334D
:10171000ABE70234A4B25146CF5D3F023D43D6E76A
:1017200051464579002D37D14B4D019112E00234DD
:10173000A4B24946019F795C0902009F0F431BE058
:10174000013A92B20668377E41460F421BD1013DF5
:10175000002D18D0002AF5D00668377E1F42F1D040
:10176000671CB9B289460199095D00918179012907
:10177000DDD069460F884C46317E1942E0D0FF0526
:10178000FF0DB762DCE70199357E67463D4218D10F
:10179000357E4646354252D00668357E47463D4244
:1017A000FBD0357E3D4207D0758B3D4200D077831C
:1017B0008579012D09D0B56A5D46013DADB2AB46D4
:1017C00069E70223337602334FE7B56AF4E74379DA
:1017D000012B0BD0002B34D1C279002A00D144E771
:1017E00004245B465D46002B19D13EE701680222C6
:1017F0000B7E1342FCD0002337E70B7E234222D01E
:101800000B7E234207D04B8B234200D04C8383793D
:10181000012B10D08B6A013DADB2002D15D00168AF
:101820000B7E2342E9D10B4B0A7E2242E5D1013BDC
:10183000002BF9D1E1E78B6AEDE7122315E71223BC
:1018400013E7002311E712230FE700230DE7C0463B
:10185000FFFF00001027000011270000F8B58000EE
:10186000854BC45826683723E35C3622A75C1F40AB
:10187000337EB57D1D40EB072ED56379012B25D036
:10188000002B29D1637A002B26D02168E26A1378D5
:10189000DBB2501CE062A079012800D169E09BB264
:1018A000DB05DB0D8B62A38E013B9BB2A386A38E6F
:1018B0009BB2002B10D101333375637A012B0BD10E
:1018C000E379002B08D10233B37505E0637A002B6E
:1018D0003ED0637A002BD8D16B0711D5738B5B0791
:1018E00051D5637A012B08D01E223823E254353BB0
:1018F0006372023333753B0741D4B36A04237383A5
:10190000AB0715D56379002B0ED107333375053B33
:101910003376013363720023A38623863833002293
:10192000E254FB0600D57FE06379012B00D17FE014
:101930002B0708D56379002B05D10833337533762F
:10194000BB0600D58AE06DB2002D00DA8AE0F8BD52
:101950004A4B1B88B362638E013B9BB26386638EE6
:101960009BB2002B01D1013333756379012BB0D0C9
:1019700086E75078000203430232E26290E72000DB
:10198000A3699847B9E7637A012B27D023689B6A3C
:10199000DB05DB0DDAB2A16A0A70A26A511CA162F2
:1019A000A179012933D0238E013B9BB22386238E5C
:1019B0009BB2002BA4D100223833E254343B337560
:1019C000637A022B29D0637A002B00D098E7BB07FB
:1019D00000D495E720002369984791E723689B6A24
:1019E000638E013B9BB26386638E9BB2002B00D05B
:1019F00086E70433337500223433E254353B637297
:101A0000FB0700D47CE72000E368984778E71B0ACF
:101A10005370A36A0133A362C5E77B0700D46FE765
:101A20002000636998476BE72000E36998477BE7EC
:101A3000637A012B00D086E7E379002B00D082E7A0
:101A4000023333750133637200223533E254FB07EE
:101A500000D46DE72000E368984769E72000236A17
:101A6000984770E78023337533767B0600D46EE7A2
:101A7000636A200098476AE7340400204C04002081
:101A8000F8B5CE46474680B58418802C03DD802209
:101A90005242121AD2B2002A37D0CD08EC00091BEC
:101AA00001278F403900FFB2012B19D0002B30D015
:101AB000022B2AD10138C6B29219D4B2204B9946D2
:101AC000204B984621002800C8477840C2B2002326
:101AD00021002800C047013CE4B2B442F2D114E036
:101AE0000138C6B29219D4B2154B9946154B984697
:101AF00021002800C8473843C2B200232100280033
:101B0000C047013CE4B2B442F2D10CBC90469946C5
:101B1000F8BD0138C6B29219D4B2094B9946CF43E9
:101B2000084B984621002800C8473840C2B200231D
:101B300021002800C047013CE4B2B442F2D1E4E7FE
:101B4000B1040000A9030000F0B583B00090019239
:101B500008AA1778002B0DD00139CEB29B19DCB240
:101B6000054D3B00019A21000098A847013CE4B2D2
:101B7000B442F6D103B0F0BD811A000070B5002068
:101B8000084B98470500084CFA218900A047074BED
:101B9000186007492800A047064B18600522064B2D
:101BA0001A6070BD2D2E0000C93500000000002015
:101BB00040420F000400002010E000E0F0B5DE46D7
:101BC00057464E464546E0B585B0040088461500A8
:101BD0009B465B7A5A46127A0021009129004046C2
:101BE000284EB0475B461B78002B06D005B03CBCA6
:101BF00090469946A246AB46F0BD5B461A7AD3089A
:101C0000520700D001335A46527A92465A46977A82
:101C1000E71B524657435F43BFB25B465B689C4637
:101C2000674402954346039320E06BB2002B0DDB23
:101C30000134E4B26D00EDB2A6420DD04346E31A82
:101C40004A461A42F1D13D780137EEE70122029966
:101C500020000D4B9847EBE7029B0133DBB2029368
:101C60005346013BDBB29A46002BBFD05B461E7A3F
:101C7000002EF1D04644F6B2039C00250723994676
:101C8000DCE7C046491B000049040000F0B5C64629
:101C900000B582B0040090461F000D00019109E0DC
:101CA0007A7A01324244D3B29846019D01342378B6
:101CB000002B0DD020780A28F2D00D28F6D03B005A
:101CC00042462900044EB0473B7AED18EDB2EDE7ED
:101CD00002B004BC9046F0BDBD1B0000F0B5DE466E
:101CE00057464E464546E0B587B0804604911600FB
:101CF0001F000022002300218B463F2401202100E9
:101D0000009601975C4603944446059413E0202412
:101D1000641A0500E540A84614E0009C019D121BD2
:101D2000AB415C464D462C43A346039C45462C43A1
:101D30000394013925D3202464420C19E7D405000B
:101D4000A540A84604008C40A14692185B411400AF
:101D50001D00059E4F463E40B446049E47463E4009
:101D6000B246664657463E4303D00600264332003D
:101D70002B00009C019D9D42DBD8CED19442D8D847
:101D8000CBE7039B5846190007B03CBC90469946E8
:101D9000A246AB46F0BD10B549084023002481425D
:101DA00002D2180010BD1C00091A631C9BB28842A5
:101DB000F9D94023FF2CF4D814800023F1E7000068
:101DC000F0B583B00F00160008AA117804004C4348
:101DD0004022BC4202D9100003B0F0BD002B14D148
:101DE000020008000021194CA04701003A0000231E
:101DF0000020174CA04700220123121A8B41120C1D
:101E00001B041A4332800022E5E70022012BF9D19E
:101E10000A00002300210D4CA04702000B00009295
:101E20000193380000210A4CA047050080239B0144
:101E300040229842CFD8790FF800009A019BA04722
:101E4000EA00821AD2B252032A43DBE7B538000017
:101E5000DD1C000010B582B004000E4B1B78002B77
:101E600007D0002905D10B4B5B78834210D01D2091
:101E70000CE001A90C701320074B98471320074B67
:101E80009847044B5C7001221A70002002B010BD0C
:101E90000020FBE7C0020020452F0000B92E000003
:101EA000404B984231D00AD93F4B98424DD03F4BDE
:101EB00098425AD03E4B984237D0002070473D4B55
:101EC00098420CD03C4B9842F7D1012917D00029F9
:101ED0005DD0022915D0032915D00020EEE7012995
:101EE00007D0002951D0022905D0032905D00020B0
:101EF000E4E73248E2E73248E0E73248DEE73248DA
:101F0000DCE73248DAE73248D8E7012907D0002970
:101F10003FD0022905D0032905D00020CEE72D4867
:101F2000CCE72D48CAE72D48C8E7012907D000298A
:101F300031D0022905D0032905D00020BEE728486A
:101F4000BCE72848BAE72848B8E7012907D00029A4
:101F500023D0022905D0032905D00020AEE723486D
:101F6000ACE72348AAE72348A8E7012907D00029BE
:101F700015D0022905D0032905D000209EE71E4870
:101F80009CE71E489AE71E4898E71E4896E70320FC
:101F900094E71D4892E71D4890E71D488EE71D48CD
:101FA0008CE7C0460010004200180042001C0042AE
:101FB0000014004200080042000C0042030005002B
:101FC00003000600030007000300010003001E00D9
:101FD00003001F000300090003000A0003000B00B8
:101FE00003001100030012000300130003000D00A2
:101FF00003000E0003000F00030017000300180089
:10200000030019000300040003000800030010008F
:1020100003000C000300160030B587B00B4B6A4676
:1020200032CB32C232CB32C2009B83420BD001236F
:102030009A0069465258824206D00133062BF7D1E6
:10204000002007B030BD0023D8B2FAE704670000D3
:1020500070B50402034E044D73681819A84705288B
:10206000FAD070BDC4020020A9080000F0B5DE4619
:1020700057464E464546E0B583B04D4B1B89002B75
:1020800000D18FE000254A4B9A461F0027E00198B7
:10209000484B98470434A4B2454B1B89A34218D936
:1020A000013B9C42F6D07A68A301D35CFF2BF1D0B0
:1020B0009E42EFD14B46D35C4146515C9942E6D0FB
:1020C0005946525C9A42E2D0A008C0B2394B9847B8
:1020D000E0E70435ADB2364B1B899D4217D2AB0108
:1020E000984653465B6842469E5CFF2EF1D02C1DFD
:1020F000A4B22F4B1B899C4209D2802242449146B4
:10210000402242449346AA08D2B20192C8E7002B6B
:1021100043D0274A977A516800225E1E244D04E07E
:102120000132403190B298420AD29642F8D00878F3
:1021300084B2FF2CF4D0BC42F2D22818C272EFE76E
:102140003F2087221A4988549D081FD04C680421DB
:102150000027013B13E0013292B2914207D09A422C
:10216000F9D09001005DFF28F5D00026F3E7002E9E
:1021700009D10137BFB2043189B2BD4206D00A1F6E
:1021800092B20126EBE78723094AD75403B03CBC3F
:1021900090469946A246AB46F0BD3F218723044AAC
:1021A000D154F3E73F218723014AD154EEE7C046DB
:1021B000C402002051200000F8B50D008401054F35
:1021C000054E7B68181940222900B0470528F8D031
:1021D000F8BDC046C40200203D080000F8B50D005F
:1021E0008401054F054E7B68181940222900B0472D
:1021F0000528F8D0F8BDC046C402002095070000AD
:1022000070B58401044E054D73681919002204202D
:10221000A8470528F8D070BDC4020020F5060000CC
:1022200010B598B016AB0021197001225A702E4AD1
:102230005268D206120F9A70D97019712B4C16A8D9
:10224000A0470528FBD013A8294B9847149B1620BC
:102250000B2B01D818B010BD264C23811A00083A68
:102260005208A2721B049B0A5B428022D20294464F
:10227000634463600022C823E2541F4B98478723BE
:10228000E35C1A203F2BE5D06A461C4B13CB13C2EC
:10229000184B1889013880B21100194B9847039BDD
:1022A000009A934219D1049B019A934217D1059B3E
:1022B000029A934215D103ABDB7B1020012BC9D1CD
:1022C00003AB1B7B012BC5D103AB5B7B002BC1D1C7
:1022D0000122084B1A700020BCE71A20BAE71A2026
:1022E000B8E71A20B6E7C046004000416D0600007E
:1022F00005090000C40200206D2000001C670000DA
:10230000B921000070B594B02F4C00228723E2540D
:1023100000202E4B98472589042D25D9002604241A
:1023200019E0A008C0B2294B984704AD4022FF2114
:102330002800274B98472E7029002000254B9847EE
:102340002000254B98470136B6B20134A4B21E4B8B
:102350001D89A54208D9013DAC42F6D00323234094
:10236000DFD0012BF1D8E0E701AE1C4B320013CBDC
:1023700013C204AC4022FF212000154B9847019B5B
:10238000049373686360B368A3600123E3732373EA
:1023900000236373A373013DEB1703201840451915
:1023A000AD10E8B2094B9847074D2889013880B233
:1023B0002100084B98472889013880B2064B98477E
:1023C000074B984714B070BDC40200205120000094
:1023D000FF570000DD210000012200001C67000003
:1023E0006D20000010B590B00C00154B1A781F231B
:1023F000002A02D1180010B010BD114B9A7A182390
:102400008242F7D9B0330E4AD35C002B03D0882325
:10241000D35C83420CD00A4B1818C07A6946094B2A
:1024200098473C2201A92000074B98470023E1E789
:102430003C2203498C312000034B98470023D9E705
:10244000C4020020B9210000ED57000010B5C823D8
:10245000084AD35C002B01D1002010BD1400882352
:10246000D35CD318D87A044B98470022C823E2548F
:10247000F2E7C046C402002001220000F0B5DE46AB
:1024800057464E464546E0B587B0040000915A4B8A
:102490001B781F20002B06D107B03CBC9046994604
:1024A000A246AB46F0BD544B9B7A0738A342F3D902
:1024B000C823514AD35C002B05D08823D35CA342A8
:1024C00001D04E4B98474C4B1B19DE7A0323310049
:1024D0009943494B5868B3011B5CFF2B47D0751CCF
:1024E000EDB20431C9B2A94257D06B1CDBB2AA01CC
:1024F000125CFF2A3CD01D00F5E705AAD2185670E1
:1025000069E005AFFF187D7063E0707802993C4B7D
:102510009847394C21008831A8B23A4B98474B462E
:102520001B78E318DD720122C823E254013702361A
:10253000022F13D087235A46D55CAD00ED19D04742
:10254000B146337801998B42DFD188232A4AD1548E
:102550003C22009903982C4B9847DAE744464046C2
:102560002A4B98478723244AD454002094E7350007
:10257000214E8823F45430008C303C220099224BA9
:10258000984731008831A8B21E4B98473419E5723C
:102590000122C823F25400207EE7B30898461B02AC
:1025A000154A5268D31805AA1978117003218E4371
:1025B00056703D31595C9170711CD1708022985CCD
:1025C0004032995C0023B51C033605AAD25C9042C8
:1025D00097D08A4291D00233042BF6D105AE002762
:1025E000054B9B46054B9A465B4688330293043362
:1025F000039301949EE7C046C40200204D240000CE
:10260000B9210000DD210000ED570000512000003D
:10261000F0B5C64600B50C00904600280FD1002A40
:1026200011DD8F18094E0A4D306821002B6898473C
:102630000134BC42F8D1404604BC9046F0BD0123B1
:102640005B429846F7E78046F5E7C046580400200D
:1026500050040020F0B5C64600B50E001500013844
:10266000022810D8002A11D000240C4B98460C4F99
:1026700043461868315D3B689847002808DB013401
:10268000A542F5D106E00124644203E0140001E014
:1026900001246442200004BC9046F0BD5804002090
:1026A00054040020F0B5DE4657464E464546E0B598
:1026B00091B005000C00160029600800AD4B98474A
:1026C000020023680520DB0706D511B03CBC90460C
:1026D0009946A246AB46F0BD236817309B07F4D459
:1026E000A549086A971C0123BB4003430B620FA94D
:1026F0002D27F35D0B701432D3B2029318009F4B59
:10270000984702989E4B9847F05D00219D4B984753
:10271000F37A6B712423F35CAB712523F35CEB71CB
:10272000F37E2B72337F6B722B6898461800914BA7
:102730009847143000220E2306A98C4663441A8061
:10274000328A02928023DB019A4200D19FE00FD9A6
:10275000C023DB01029A9A4200D193E080231B023E
:102760009A4200D001E1032306930023079308E077
:1027700080239B019A4200D0F7E0102306930F3B81
:10278000079333689B46F368049373699A46337ED4
:1027900005932623F35C039373689946002B00D1BD
:1027A000A1E080235B05994500D185E0737E002B75
:1027B00002D0B37E424693732A68029FD369002BEE
:1027C000FCD10E3306AA944663441B88424693818B
:1027D0005B46049A1343524613434A4613431F432E
:1027E000059B1B021F43039B5B071F432723F35CCF
:1027F000002B01D104331F43737E9B02327F5202B0
:102800001343727F120213432422B25C5204134317
:102810002522B25C12041343B17AF27A11431943B0
:102820003389FF2B00D182E08022520417431943E1
:102830002C23F35C002B03D1534B9B789B0701D5D2
:1028400080231F432A68D369002BFCD1434659607B
:102850002A68D369002BFCD143461F600EAB80224F
:102860001A7000225A70DA709A70336B0A93736B85
:102870000B93B36B0C93F36B02930D9300270AAD8C
:10288000424E63E008230693073B079379E73368DA
:102890009B46F368049373699A46337E0593262317
:1028A000F35C039373689946002B18D080235B0573
:1028B000994501D0002025E02723F35C002B00D0B0
:1028C00074E7336A1F00C0B2314B984701000E22F3
:1028D00006AB9C46624438002E4B984712E0082312
:1028E0000693002307932723F35C002B0ED0069B4F
:1028F0000093079B0E2206A98C466244B16A306A97
:10290000254FB847002800D0DFE64FE7336A1F00A5
:10291000C0B21F4B98470100069B0093079B0E22F5
:1029200006A88446624438001B4FB847EAE7F37EA6
:10293000002B00D17CE78023DB041F4378E72000D5
:10294000164B984707E00137042F0CD0F9B2BB00B3
:1029500058590028F3D0431CF5D00EA90870000C7C
:10296000C0B2B047EFE70020AFE610230693002384
:10297000079306E71920000000040040452F0000DF
:10298000B92E0000551E0000002000413D3000001F
:10299000612F0000971D0000C11D0000A11E000056
:1029A000C3791C22002B01D1100070470368187EE8
:1029B000173AC007F8D5DA69002AFCD11985022137
:1029C0001A7E0A42FCD00022EEE782791C23002AFC
:1029D00001D1180070470268107E173B4007F8D5F8
:1029E000D369002BFCD1538BDBB298061DD098071E
:1029F00003D5022353831833EBE7580703D5042389
:102A000053831A33E5E7D80703D5012353831233E1
:102A1000DFE7D80603D5102353833233D9E79B066B
:102A200003D5202353832133D3E7138D0B80002359
:102A3000CFE700000C4B1B68002B06D1EFF310838F
:102A4000002B07D00022094B1A70074A1368013384
:102A50001360704772B6BFF35F8F0022044B1A7089
:102A60000132024B1A70F0E790030020940300201B
:102A700014000020084B1A68013A1A601B68002BEA
:102A800009D1064B1B78002B05D00122044B1A708C
:102A9000BFF35F8F62B6704790030020940300205D
:102AA00014000020F0B583B001AC0125657000274B
:102AB000A770257021003E20064EB0478022D20527
:102AC000054B9A612770657021000F20B04703B055
:102AD000F0BDC046DD2A00008044004100B583B04F
:102AE00001AB80221A700A785A704A789A708A78F4
:102AF000DA701900014B984703B000BD3D3000006B
:102B000010B5082803D880001B4B1B589F46002097
:102B100030E01A4B18692DE0194B1B6A9B059B0F7F
:102B20001848D84026E0154B586923E0134B1B6822
:102B300000209B071ED512491022CB681A42FCD0F8
:102B40000E4B1B685B0701D40F4813E000200F4BAE
:102B500098470A4B9B681B041B0C58430AE0502300
:102B6000074AD35C00205B0704D5044BD86801E01A
:102B70008020000210BDC046286700009803002096
:102B80000008004000127A00006CDC02612F000097
:102B900070B50C490B6A04788578407801221040A2
:102BA00080014026B34303432A40D201802083435F
:102BB00013430322224012020348034013430B62D3
:102BC00070BDC04600080040FFFCFFFF082803D886
:102BD0008000254B1B589F46172044E0234A136A68
:102BE00002210B43136200203DE0204A9369022139
:102BF0000B439361002036E01C4A138A02210B43E9
:102C0000138200202FE0194A938A02210B439382FA
:102C1000002028E016490B68022213430B60134B77
:102C20009A8419000E32CB681A42FCD0104A91687F
:102C30000E4BD96252689A6200229A8419001032AF
:102C4000CB681A42FCD00A4B1B689BB2074A93849C
:102C5000002008E0054944228B5C022003438B548A
:102C6000002000E0002070474C6700000008004092
:102C70009803002030B585B0C222D2001A4B9A606A
:102C80001A4A53681E218B43536001236A4613700E
:102C90000024174DE0B26946A8470134252CF9D12C
:102CA00003A800244470012585700470114B9847D7
:102CB0000620114B9847114B9847114B1C725C72C0
:102CC0009C72DC7201956B465C7006236A46137039
:102CD00014725472694600200A4B984700200A4B30
:102CE000984705B030BDC046000800400040004194
:102CF000452F0000912B0000CD2B00000D2D000072
:102D000000040040312D0000E92D0000064A9369BF
:102D100008210B4393610122044B1A7019000B78B0
:102D20001342FCD17047C04600040040000C004034
:102D300070B5060004000D782D0205434B78002B7A
:102D400002D08023DB021D434B7A002B02D080236C
:102D50001B031D434868012810D9431E184234D173
:102D6000022830D90223002201325B009842FBD8AE
:102D700012023243140080235B031D430B7A002BA5
:102D800002D080239B031D43134A53785BB2002B70
:102D9000FBDB124B9847124B1E700F4A53785BB205
:102DA000002BFBDB0C4B9C601A0053785BB2002BB2
:102DB000FBDB094A5368802149020B401D435560E3
:102DC000084B984770BD0022D2E7040234438023A9
:102DD0009B021D43D2E7C046000C0040352A00008C
:102DE000080C0040752A000010B504000B4A537807
:102DF0005BB2002BFBDB0A4B98470A4B1C70074A5F
:102E000053785BB2002BFBDB044A516880235B02E2
:102E10000B435360044B984710BDC046000C004064
:102E2000352A0000040C0040752A000070B504002B
:102E30001A4A53785BB2002BFBDB194B9847194BAE
:102E40001C70164A53785BB2002BFBDB134E706884
:102E5000C004C00E144B98470500124B1C707668D6
:102E6000F602F60F114B1C700C4A53785BB2002B24
:102E7000FBDB0A4B9C682402240C0D4B9847002E68
:102E800007D1012C07D9210028000A4B98470500DB
:102E900001E00134E540280070BDC046000C004050
:102EA000352A0000040C0040012B0000080C0040F3
:102EB000752A0000C935000010B50400064B98477C
:102EC000064B1C70064A53888021C9010B4353806E
:102ED000044B984710BDC046352A0000020C004044
:102EE000000C0040752A000010B504000F4B9847F5
:102EF0000F4B1C700F4A53881B05180F53880E493F
:102F00000B40538053880D490B40538011008022A1
:102F1000D2014B881342FCD106494A880302064875
:102F2000024013434B80064B984710BD352A0000E2
:102F3000020C0040000C0040FFF0FFFFFFBFFFFF4E
:102F4000752A000010B50C7824020443024B984700
:102F5000A4B2024B5C8010BDE92E0000000C0040C2
:102F600010B50400064B9847064B1C70064B5C8856
:102F70002405240F054B98472000054B984710BDAA
:102F8000352A0000020C0040000C0040752A0000A9
:102F90002D2E000030B5D378002B35D11378802B3F
:102FA00029D01B0680246402234354780225AC43B5
:102FB00006D19478002C20D18024A40223434160C0
:102FC0005478013C012C1CD90D042D0CA024E405DF
:102FD0002C431C4384620D0CD02424062C431C4338
:102FE0008462D478002C22D15B031CD59378012B0A
:102FF0001ED0416117E00023D7E7C024E402234339
:10300000DDE70D4C2340DFE741600C04240CA023D6
:10301000DB05234383620C0CD0231B06234383620E
:10302000D378002B03D15378013B012B02D930BD5B
:103030008161F8E78160FAE7FFFFFBFF10B50A0046
:10304000C1090023002904D14309DB0105498C464D
:1030500063441F242040012181401800024B9847FF
:1030600010BDC04600440041952F0000704700008D
:1030700010B5054B9847054B9847054B9847054BAE
:103080009847054B984710BD752C0000A52A0000F5
:103090006D3000006D3000006D300000FEE7000074
:1030A000F8B52A4A2A4B9A4211D01A00294B9A4263
:1030B0000DD2294A03339B1A9B0801339B0000223F
:1030C000234822498C58845004329A42FAD1234A28
:1030D000234B9A420AD2D34321495B1803218B43E5
:1030E00004339B18002102C29342FCD11D4AFF21E8
:1030F0001D4B8B439360FD3990235B001B4AD150DD
:103100001B4AD3780325AB4302242343D370D378DF
:103110000C27BB4308263343D370164B987B3022D1
:103120009043202210439873997BB943314399739C
:103130009A7BAA4322439A730F4A536880210B4318
:1031400053600E4B98470E4B9847FEE7046900000A
:10315000000000207C000020040000207C000020F3
:103160003005002000ED00E000000000007000418C
:103170000050004100480041004000416D570000F0
:10318000013400000300064A1268002A04D0044AF1
:103190001068C318136070470249014A1160F6E7CE
:1031A000B0030020302500200120404270478023DA
:1031B0009B014B6000207047012070470020704742
:1031C00070B582B005000E0000226B46DA80064C16
:1031D0006B46991D2800A0470028F9D16B4606339D
:1031E0001B88337002B070BDCB29000070B505009C
:1031F0008CB2034E21002800B0470028FAD170BDE0
:10320000A129000010B504000388002B05D0232B52
:1032100005D000232380032006E023230380084BEE
:103220001B680020012B00D010BD0649064B9847B3
:103230000122064B1A600022014B1A60E9E7C046E2
:10324000B403002068040020E5230000C003002030
:1032500010B5084B9847162802D0002801D110BDA0
:10326000FEE70548054B9847054B9847014B9847A3
:10327000F5E7C0462122000070670000D158000029
:103280000523000070B50F4B98470F4D2B00072208
:1032900001210E480E4CA0472B0007225D210D484E
:1032A000A0472B00072269210B48A0472B001422BE
:1032B00001210A48A0472B00142264210848A04796
:1032C00070BDC046FD03000008000020A867000094
:1032D0008D1C000068040020B8670000BC67000077
:1032E000D067000070B50F4B98470F4D2B00072299
:1032F00001210E480E4CA0472B0007225D210D48EE
:10330000A0472B00072269210B48A0472B0014225D
:1033100001210A48A0472B00142264210848A04735
:1033200070BDC046FD03000008000020A867000033
:103330008D1C000068040020B8670000BC67000016
:10334000A067000070B50F4B98470F4D2B0004226B
:103350000F210E480E4CA0472B000E2220210D48B5
:10336000A0472B00182200210B48A0472B00192250
:103370005D210A48A0472B0019226B210848A0476D
:1033800070BDC046FD0300000800002080670000FB
:103390008D1C000090670000A867000068040020F2
:1033A0009C67000010B504000388002B05D0312B6A
:1033B00005D000232380032010BD312303800B4B55
:1033C0001B680020012BF7D10022084B1A60084B24
:1033D0001B680F2B04DD192B05DD064B9847E8E72A
:1033E000054B9847E5E7054B9847E2E7C003002007
:1033F000DC040020E5320000853200004533000087
:10340000F8B5CE46474680B54C4B98474C4B98474D
:103410004C4A8023DB05136000235360FF21118198
:1034200000219372D372962080011062012024241F
:103430001055013410552530135401301354936244
:1034400088204003D0602C201354013013541363A0
:1034500053639363D36353611382D37611761177E9
:103460005176132393765177374C384B1C6038498B
:10347000384B19603849394B196039492000394BAC
:103480009847394E336898680021384DA84733680B
:1034900058680021A8472368DA69002AFCD11A6815
:1034A00002210A431A60324B9847324B9847002357
:1034B000314A1360314A1360314A1380314A138014
:1034C0000024314B984626E0002400202F4B9946DB
:1034D0002F4F304E304DC8473959B047A8470434B4
:1034E000142CF8D105212D4B98472D4B18602D4CED
:1034F0000A2221002C4B9847210000202B4B984793
:103500002B4B984701221C4B1A60002403E0A200B9
:103510001F4BD0500134052CD6D01948C04719484C
:10352000244B9847244B9847244B9847244B1860CA
:10353000244B013B002BFCD1E9E7C0467130000071
:10354000FD0300009C0400205C04002058040020BF
:10355000ED31000054040020C1310000500400206F
:1035600000140042A526000018000020E5580000C5
:10357000BD04000051320000B4030020C00300204D
:10358000BC030020B8030020053200006D3C0000A1
:10359000E4040020093900002D3C0000DD36000065
:1035A000DC040020F8040020E55700007D24000022
:1035B0004D240000A5330000C90500001D56000081
:1035C000E004002040420F00002243088B4274D3E5
:1035D00003098B425FD3030A8B4244D3030B8B4214
:1035E00028D3030C8B420DD3FF22090212BA030C1D
:1035F0008B4202D31212090265D0030B8B4219D3FE
:1036000000E0090AC30B8B4201D3CB03C01A52411D
:10361000830B8B4201D38B03C01A5241430B8B4265
:1036200001D34B03C01A5241030B8B4201D30B034E
:10363000C01A5241C30A8B4201D3CB02C01A524175
:10364000830A8B4201D38B02C01A5241430A8B4238
:1036500001D34B02C01A5241030A8B4201D30B0221
:10366000C01A5241CDD2C3098B4201D3CB01C01A3B
:10367000524183098B4201D38B01C01A5241430945
:103680008B4201D34B01C01A524103098B4201D333
:103690000B01C01A5241C3088B4201D3CB00C01AA0
:1036A000524183088B4201D38B00C01A5241430818
:1036B0008B4201D34B00C01A5241411A00D201463D
:1036C000524110467047FFE701B5002000F0F0F8C6
:1036D00002BDC0460029F7D076E7704703460B438A
:1036E0007FD4002243088B4274D303098B425FD3FB
:1036F000030A8B4244D3030B8B4228D3030C8B4227
:103700000DD3FF22090212BA030C8B4202D312120C
:10371000090265D0030B8B4219D300E0090AC30BE1
:103720008B4201D3CB03C01A5241830B8B4201D38E
:103730008B03C01A5241430B8B4201D34B03C01A77
:103740005241030B8B4201D30B03C01A5241C30AEF
:103750008B4201D3CB02C01A5241830A8B4201D360
:103760008B02C01A5241430A8B4201D34B02C01A4A
:103770005241030A8B4201D30B02C01A5241CDD2EF
:10378000C3098B4201D3CB01C01A524183098B423A
:1037900001D38B01C01A524143098B4201D34B0123
:1037A000C01A524103098B4201D30B01C01A524186
:1037B000C3088B4201D3CB00C01A524183088B420D
:1037C00001D38B00C01A524143088B4201D34B00F6
:1037D000C01A5241411A00D2014652411046704768
:1037E0005DE0CA0F00D04942031000D3404253406D
:1037F00000229C4603098B422DD3030A8B4212D32D
:10380000FC22890112BA030A8B420CD3890192115E
:103810008B4208D3890192118B4204D389013AD09B
:10382000921100E08909C3098B4201D3CB01C01A70
:10383000524183098B4201D38B01C01A5241430983
:103840008B4201D34B01C01A524103098B4201D371
:103850000B01C01A5241C3088B4201D3CB00C01ADE
:10386000524183088B4201D38B00C01A5241D9D2F6
:1038700043088B4201D34B00C01A5241411A00D277
:103880000146634652415B10104601D34042002B73
:1038900000D54942704763465B1000D3404201B5F2
:1038A000002000F005F802BD0029F8D016E77047A7
:1038B0007047C046F0B5CE46474615042D0C2E0085
:1038C00080B50704140C3F0C9946030C7E435D43FE
:1038D000674363437F19340CE4199C46A54203D91E
:1038E00080235B029846C4444B465143434336040D
:1038F000360C250C24046544A419591849192000D4
:103900000CBC90469946F0BDF0B5C6464E02470243
:10391000760A7B0A4400C50FF7004800984600B5B8
:10392000240E2A00DB00000EC90FBC468D4267D072
:10393000221A002A00DCA5E000283AD1002F00D18D
:1039400093E0511E002900D0BCE00124DB1B5A018A
:1039500046D59B019E09300001F0EAFE05388640FD
:10396000844200DD9DE0041B320020200134E2404F
:10397000041BA64033005E1EB341002413435A07C4
:1039800004D00F221A40042A00D004335A0129D54A
:103990000134FF2C00D181E02A009B015B0AE4B2D4
:1039A0005B02E405580AD2072043104304BC90464A
:1039B000F0BDFF2CE3D080213800C90408438446C1
:1039C0001B2A00DD82E020206146D140821A604639
:1039D00090400200501E82410A439B1A5A01B8D4FB
:1039E0005A07CED1DE082A00FF2C3AD1002E00D192
:1039F000AEE08023DB0333435B025B0AFF24CFE7A7
:103A0000211A002952DD002831D0FF2CB7D08020A8
:103A10003E00C0040643B4461B2900DDAAE0202670
:103A20006046C840711A66468E4031004E1EB14154
:103A300001435B185901D3D50134FF2C00D187E035
:103A4000012278491A405B080B40134397E7002C8A
:103A500000D0A7E0002B00D0B6E03B1E62D10026CC
:103A6000002273025B0AE4B29AE7140087E7002F92
:103A70004DD0481E002857D1634401245A01AFD5C8
:103A80000224DDE7002A24D1621CD2B2012ADEDD45
:103A9000DE1B720135D5FE1A0D005CE72A000023FB
:103AA0007EE73300604A241A134068E7002963D197
:103AB000611CC8B201284EDDFF2949D063445B0870
:103AC0000C005CE7FF2A41D00A0079E701229B1A2B
:103AD00084E7002C1DD0FF2822D08024E404524229
:103AE00023431B2A00DD8AE01C002025D440AA1AAB
:103AF00093405A1E9341234362460400D31A0D009B
:103B000025E7002E00D026E700220024A9E70C00BC
:103B100035E7002B4DD0D243002AEDD0FF28E0D16D
:103B20006346FF240D002AE7FF290FD0010073E749
:103B3000002B61D0FF24002F00D120E780224146D6
:103B4000D203114202D0164200D13B00FF2416E7F7
:103B5000FF24002324E7002CEAD1002B58D0002FAB
:103B600000D10CE763445A0100D439E72E4A0C0017
:103B7000134004E701215CE7002C1ED1002B40D04C
:103B8000C94300290BD0FF2836D01B2947DC1C0075
:103B90002026CC40711A8B40591E8B41234363442D
:103BA000040047E7002B18D13B1E2DD00D00FF2449
:103BB000E5E63B0004000D00E1E6FF281CD0802470
:103BC000E40449422343E0E7002F00D1D7E6DE1B9F
:103BD00072011FD5FB1A0D00D1E6FF24002F00D182
:103BE000CDE680224046D2031042AFD01642ADD17E
:103BF0003B000D00FF24C2E66346FF24BFE601231D
:103C00007AE73B000400BAE680260022F603F0E6DD
:103C10003B00B4E6331E00D0E2E6002221E7012398
:103C2000BDE7C046FFFFFF7DFFFFFFFB41024300F2
:103C3000C20F490A1B0E00207E2B0DDD9D2B0CDCD4
:103C4000802000040143952B0ADC9620C31AD9403A
:103C50004842002A00D108007047034BD018FBE708
:103C6000963B9940F4E7C046FFFFFF7F70B5002800
:103C700030D0C317C4185C40C50F200001F058FDB8
:103C80009E231B1A962B0DDC9622D21A94402A00F2
:103C90006402640ADBB26402DB05600AD2071843DF
:103CA000104370BD992B19DC9922D21A002A29DD04
:103CB00094402200144C1440510704D00F210A40B4
:103CC000042A00D00434620113D4A401640ADBB2D4
:103CD0002A00E0E7002200230024DCE7052221007F
:103CE000121AD140B922D21A9440621E94410C4358
:103CF000DAE7054B2A001C409F23A4011B1A640A23
:103D0000DBB2C8E72200D5E7FFFFFFFBF8B5454669
:103D1000DE4657464E460C03E0B54E00C90F8846B6
:103D20000D00610A440F0C43C70019035800DB0F54
:103D30009B464B0A510F0B43760D400D1900D200E4
:103D4000D84500D1AEE0351A002D00DCF6E00028A1
:103D50000FD1134300D1DBE06B1E002B00D037E105
:103D6000BA1A9742BF41641A7F42E41B012617002A
:103D700024E0C64B9E424DD080231B041943382DAE
:103D800000DD07E11F2D00DD38E12020431B9A46AE
:103D90000B0050468340994613004846EB401843B9
:103DA000030050468240501E8241E9401A43BA1A2D
:103DB000611A9742A441170064420C1B230262D58A
:103DC0006402650A002D00D1DFE0280001F0B0FC9C
:103DD0000300083B1F2B00DDD2E020223C00D21A5A
:103DE0009D40D4409F4025439E4200DDC4E09E1B81
:103DF000731C1F2B00DDF1E0202238002900D21AAD
:103E0000D840914097402C000143781E8741DC4008
:103E100000260F437B0709D00F233B40042B05D01E
:103E20003B1DBB42BF417F42E4191F0023022CD53A
:103E3000964B01369E4200D19AE04546944BFF08CE
:103E40001C406007760564020743240B760D0021B1
:103E50002403230B0C0D8F4A24051C431440330507
:103E600023435B00ED075B082B43380019003CBC83
:103E700090469946A246AB46F8BD6446044300D13D
:103E800011E2040067467B07C6D145466007FF087C
:103E90000743E4087D4B9E4230D024037605240B73
:103EA000760DD4E7331A9A46002B78DD002831D0FE
:103EB00076488642AED08020000401435346382B1A
:103EC00000DCE9E00A43511E8A410021D219BA42BE
:103ED000BF4109197C4217000C192302D3D56B4B43
:103EE00001369E4200D13AE10120694B1C407B081B
:103EF00007401F43E007074364088BE723003B4369
:103F000000D1CBE18022120314432403240B9EE74B
:103F10002E007FE70800104300D1B4E0581E0028AF
:103F200000D0DEE0BA18BA429B4164185B42E41844
:103F3000170001262302A6D50226D5E7002D6ED153
:103F4000701C4005400D012800DCF9E0B81A8446D9
:103F500087428041E51A40422D1A280200D489E0A8
:103F6000D71BBA4292411C1B5242A51AD84629E7D8
:103F70004546002400276AE7454CF61A2C4049E7DD
:103F80003D002838854000272EE7380001F0D0FB9F
:103F900020301DE70A43511E8A41002107E7002B0C
:103FA00000D0F3E0701C43055B0D012B00DCADE09D
:103FB000364B984200D1D1E0BA18BA42BF416418DA
:103FC0007F42E419E707520817436408060021E717
:103FD0002E48854200D193E01D00D0E629001F3E07
:103FE000F140202B00D18DE04022D31A9D402F4379
:103FF0007D1EAF4100240F43002644E72B0008003C
:10400000203BD8400300202D00D17DE04020451BFF
:10401000A9400A43511E8A4100211A43C7E6002ED7
:1040200050D01A4EB04257D080266B429946360483
:1040300034434B46382B00DDD6E01F2B00DD35E145
:104040002026F51A2600AE40B2463E00DE40AC46C1
:10405000350056462E436546AF407D1EAF41DC40DD
:104060003743D71BBA4292410C1B5242A41A060096
:10407000D846A3E6644667462C4300D0A2E6002556
:104080000026002706E71E00C4E6C046FF07000022
:10409000FFFF7FFFFFFF0F801F2B63DC2020C31A71
:1040A000080098409C46834653461000D8400300C1
:1040B0005846184363469A40531E9A41534602435A
:1040C000D94003E726003E4306D0EB439946002B38
:1040D000C7D0944EB042ACD10C0017000600D846B1
:1040E00098E6904B9A450BD08246E7E6002800D030
:1040F0009EE01800104300D1E9E01C001700D846EC
:10410000884E87E6002572E7002182E723003B43C3
:10411000002E00D0ABE0002B00D1E7E00B001343F2
:1041200000D177E6BA18BA42BF4164187F42E41959
:10413000230200D4F2E07C4B17001C40060069E625
:1041400020003843002ED1D100285BD11C0014433D
:1041500000D1A8E01C001700D8465BE6060000244A
:10416000002797E650460B002038C3409946534637
:10417000202B00D195E0402350461B1A99400A435A
:10418000511E8A414B4600211A439FE6002E30D132
:1041900026003E4367D0DB439A46002B1CD0614E7D
:1041A000B04260D05346382B00DD96E01F2B00DD77
:1041B0009FE02026F31A26009E409C46B3465346B5
:1041C0003E00DE4033005E461E4363469F407B1E3A
:1041D0009F415346DC403743BF18974292416418D1
:1041E0005242A418060078E627437C1EA74100240B
:1041F00037E74C4EB04236D080265B4236049A46B2
:104200003443CFE71800104300D103E6B81A8446C0
:104210006745AD41E01A6D42401B050200D42CE613
:10422000D71BBA4292411C1B5242A41AD846F1E550
:104230001800104300D163E7F808670707438020A0
:10424000E4080003044208D0DD08054205D1D20885
:10425000590711430F002C00D8467B0FE4001C4384
:10426000FF00304ED6E50C0017000600D2E5002B0B
:1042700038D00B00134300D142E7F8086707074323
:104280008020E40800030442E7D0CB080342E4D1D5
:10429000D208490711430F001C00DEE70027002465
:1042A000D5E500216BE700250027F3E54E46250004
:1042B000203EF5404B462E00202B2DD04025ED1AF8
:1042C000AC4027437C1EA74100243743C9E6802425
:1042D00000252403134E0027DCE527437C1EA7415D
:1042E000002479E70C0017000E4E93E50C00170030
:1042F00090E556462300203EF34099465346202B36
:104300000ED0402356469B1B9C4027437C1EA74152
:104310004B4600241F435FE70024D2E71700B2E5B5
:104320000024F2E7FF070000FFFF7FFFF0B55746CC
:104330004546DE464E46E0B54C000E0387B0834648
:1043400092461D008046360B640DCF0F002C4FD0D7
:104350006F4B9C4235D08023420F1B04F600134361
:1043600033439946C30098466A4B00269C46002377
:10437000644403932B031B0B9B466B00ED0F5046CD
:104380005B0D01955ED0624A934253D05A46D100EC
:104390008022400F120402430A4393465246D10042
:1043A0005C4A944600226344380068408446029088
:1043B000E41A16430F2E00D9B4E0574BB6009B59B0
:1043C0009F460300334399466CD10023984602333D
:1043D00008260393CEE7CB464146039A0197022A6B
:1043E00065D1019B4A4C9C460023002298466BE015
:1043F0000300334399464ED0002E00D1BCE130007B
:1044000001F096F903000B3B1C2B00DDACE11D22F3
:10441000D31A5A460100DA4008398E40130033435C
:1044200099465B468B40984600233C4C0026241A54
:1044300003939FE751465A46114329D100229346E0
:104440000232B1E7594601431ED05B46002B00D132
:104450009EE1584601F06CF903000B3B1C2B00DD7C
:104460008FE102005946083A91408B461D21CB1A34
:104470005146D9400B0059460B4351469B4691404B
:10448000264B00221B1A8FE7002301229B468BE755
:104490005146032288E7002398460133042600246E
:1044A000039367E70323B14603930C2662E7032ACD
:1044B00000D15CE2019B012A00D0E4E113409C465C
:1044C000002300240022984600211203130B0A0D3A
:1044D00012051A432305124C4046224013436246FC
:1044E0005B00D2075B081343190007B03CBC904641
:1044F0009946A246AB46F0BD002380229C4612039B
:104500009846034CE0E70023014C00229846DBE785
:10451000FF07000001FCFFFFD86700000DFCFFFF54
:10452000FFFF0F80D94500D939E100D134E10023E4
:1045300046464D469A46013C5B460A0E1B021A430C
:104540000B02170C039313041B0C39002800904630
:104550000193FFF739F80200019B83465A43280074
:1045600039009146FFF7B6F8350C09040D43A9450B
:104570000DD95B464544013BA84500D93AE1A94520
:1045800000D837E102235B429C464544E3444B4656
:10459000EB1A390018000493FFF716F8019B050089
:1045A0004343390004989946FFF794F8330409040B
:1045B0001B0C0B43994509D943446A1E984500D901
:1045C0001AE1994500D817E1023D43444A469B1A37
:1045D0005A4612042A4303999346100C0A0C91463A
:1045E00009045A46090C4E460D001204120C4543AC
:1045F000059151437243704352190E0CB218954203
:1046000003D980256D02AC466044150C09041204E0
:10461000090C28185218834200D2CEE000D1C8E01D
:104620001D1A53469E1AB24592415242AB1A9A46FF
:10463000984500D117E139001800FEF7C5FF019B2E
:1046400005004343390050460493FFF743F80498AC
:104650000B04310C1943884209D941446B1E88452B
:1046600000D907E1884200D804E1023D4144049B9F
:10467000CB1A180039000493FEF7A6FF019B82466F
:104680004343390004980193FFF724F801980B0481
:104690003104090C194388420DD953464144013B6A
:1046A000884500D9E8E0884200D8E5E002235B4273
:1046B0009C464144E244019B2D04CE1A51462943B5
:1046C000059D4F462A000B04080C1B0C5A4345431A
:1046D0007B4378435B19170CFB189D4203D9802557
:1046E0006D02AC4660441D0C12041B04120C281809
:1046F0009B18864200D293E000D18EE0012319433B
:10470000A04BE318002B00DC99E04A0700D09EE0A4
:104710005A46D20106D55A469B4B1A4080239346EF
:10472000DB00E318994A934268DD0123029A984C12
:104730001A400023944698460022C5E680224B4644
:10474000120313420AD05B46134206D11A431203E6
:10475000120BAC4688468E4CB6E64B461A43120303
:10476000120BBC468A4CAFE603005A46283B9A40DF
:1047700000239146984657E6584600F0D9FF20306E
:1047800040E603005246283B9A400021934677E6D4
:1047900000F0CEFF20305FE6884500D2C7E64B46EA
:1047A000DE075D0843465B081E434346DB079A4627
:1047B000C2E60025924500D333E7039E5946B4462E
:1047C000E244B245AD416D424544EB18013998458C
:1047D00007D2984200D97FE000D1BCE01D1A8B4679
:1047E0001FE79845FAD1039D5545F2D943468B46BC
:1047F0001D1A16E79B46CAE61500E7E65A46C908A1
:1048000052070A435B0590465C0D5A460123029904
:1048100052021940120B8C4656E6002B00D16FE76E
:1048200046444A1EB04529D91100864200D065E7AA
:10483000039A934200D061E762E7012149420120D7
:10484000C21A382A21DD029B03409C4638E60F221B
:104850000A40042A00D15BE70A00111D91429241EF
:104860005242934454E7474BE318002BE5DD012205
:104870005242F2E71D00FAE69A461CE7B04239D8E8
:104880006ED011003AE702933AE71F2A3CDC20235E
:104890009B1A0C005846994098404B1E99415B4624
:1048A000D440D340204308431A00430709D00F23C4
:1048B0000340042B05D00100081D88429B415B4248
:1048C000D21813023AD50123029A01241A40002378
:1048D000944698460022F7E5022149428C46039D02
:1048E000E344AC46E244AA45AD416D424544ED186F
:1048F0002D1A96E68A1E03994D008D428941494240
:104900004144761803958FE71F204042C31A58464A
:10491000D8400300202A28D040205D46821A9540C6
:1049200029434A1E91411943072300220B4009D015
:104930000F2300220B400800042BBDD101005307B8
:104940005202120BC9081943012388460299002418
:1049500019408C46B8E55245BED88B46002560E626
:10496000039D9D42C6D3110062E70025D8E780224F
:104970005B4612031A43019B1203120B9C468846A6
:10498000034CA1E5FF030000FFFFFFFEFE07000050
:10499000FF070000F0B557464546DE464E46E0B5F7
:1049A0000C0398464E00230B87B0070092469B46A7
:1049B000760DCD0F002E6BD06D4B9E4235D08024EE
:1049C0005B46420F2404DB0014431C43C30099469A
:1049D000684BA3469C460023002766440293434647
:1049E0001C035A00DB0F5046240B520D984600D191
:1049F00076E05F4B9A426DD08023410F1B040B433E
:104A00005C49E4008C461C43C300002062444146DC
:104A1000B6186940721C0191944607430F2F00D9C4
:104A2000B0E0554ABF00D25997465B4603439946CA
:104A300000D087E000239B46023308270293CEE78D
:104A400042460192022867D0032800D10EE20128D5
:104A500000D062E100230024002299460199014020
:104A6000CDB2002112030B0D120B1B051343434A59
:104A7000240513401C436400ED0764082C4348469A
:104A8000210007B03CBC90469946A246AB46F0BD1B
:104A9000034399464FD05B46002B00D189E158462D
:104AA00000F046FE03000B3B1C2B00DD7AE11D22CB
:104AB000D31A3A0001005C46DA4008398C401300F2
:104AC0008F4023439B46B94600232D4E0027361ABC
:104AD000029384E7534623432AD10024022096E719
:104AE0005346234320D0002C00D157E1200000F092
:104AF0001FFE03000B3B1C2B00DD49E11D21CB1ADF
:104B000051460200D9405346083A944093400C4322
:104B10001B4A121A00207AE70125019B144C1D4004
:104B20000023002299469CE70024002201206EE722
:104B3000534603206BE700239B46013304270026DE
:104B400002934CE7032381460C27029347E7802218
:104B50000023002512039946054C82E75C464B462C
:104B600002986FE75C464B46019502986AE7C0469B
:104B7000FF07000001FCFFFF18680000FFFF0F8027
:104B80000DFCFFFF4A464946170C1A0C1B041B0C70
:104B900008041900000C41431500884619007D43A4
:104BA0007943039589462900150045434D440295F4
:104BB00045462D0CAA46029D5544A94506D98A466C
:104BC000802149028946CA4451460391290C049127
:104BD000414609042D04090C88462900250C2404AB
:104BE0004144240C0591210041438846210079432A
:104BF0008A466843414650448146080C48446F4306
:104C0000824503D98021490289464F44010C8946D7
:104C100039004944029141460F0404993F0C8846EB
:104C20000004C01980444146049159460F0C090400
:104C3000090C884659438A46390051438946414602
:104C40004A435146090C8B467B43D2185A4493423F
:104C500003D980235B029B46D94451460904090CC1
:104C60008A46414661437C43130C12044B44524430
:104C7000A1468A463C0041466C434D4351464D4453
:104C80000F0C7D19A94503D9802149028846444467
:104C9000049F0399B84641448B4683458041414275
:104CA0008846514608042F04000C3F1858460299C4
:104CB00010188946904292414F44BA465242994652
:104CC0009346C244D144CB448F42BF41C24589413F
:104CD00099459B41934592417F4249422D0C524256
:104CE0000F435B4213437F19FF185B463C19DB0DF2
:104CF000059A64021C43430213435D1EAB415A46AE
:104D0000C00D034352021343E20156D501205A0855
:104D100003401343E207134364085A4860440028E1
:104D20004DDD5A0709D00F221A40042A05D01A1D5A
:104D30009A429B415B42E4181300E20104D58020B3
:104D4000514AC00014406044504A904200DDE3E6FE
:104D50000125DB0862071A436402019B9146220B7E
:104D60004405640D1D407CE6802259461203114221
:104D700008D0144206D122431203120B454699462D
:104D8000434C6EE65B461A431203120B404C68E636
:104D900003005446283B9C400023B9E600F0C8FCC1
:104DA0002030A6E60300283B9F400023BB469946DF
:104DB0008AE600F0BDFC203074E6B446ADE701257C
:104DC0002A1A382A06DD019B00241D4000230022F8
:104DD000994646E61F2A21DC20252000AD1A1E0038
:104DE000AB40A840D6405D1EAB4130431843D44091
:104DF000430709D00F230340042B05D00300181DDF
:104E000098429B415B42E418230221D50125019B76
:104E100001241D4000230022994622E61F2521007F
:104E20006D42281AC1400800202A1DD05F35AA1AF9
:104E3000944023435C1EA341072503431D400022E9
:104E4000002D09D00F2200241A401800042AD6D1C0
:104E5000030065076402220BDB082B4301259946FA
:104E6000019B00241D40FCE50024E2E7802201258F
:104E70001203224301991203120B0D409946044C70
:104E8000EFE5C046FF030000FFFFFFFEFE07000046
:104E9000FF070000F0B54646D6464F460C03C0B5A6
:104EA000CD0F4E00610A440F0C43C1005800400D65
:104EB00084468A460F001903500F490A0143C64829
:104EC000760DA846DB0FD200844500D1D8E0012042
:104ED0004340AB4200D1A6E06046351A002D00DC0D
:104EE00005E1002810D10B00134300D1D7E06B1E61
:104EF000002B00D04BE153469F1ABA458041641AFB
:104F00004042241A01261EE0B34B9E4248D0802323
:104F10001B041943382D00DD19E11F2D00DD4CE184
:104F200020230F005B1B10009A409F40E840531E57
:104F30009A41E940074317435346DF1B611ABA45BC
:104F4000A44164420C1B230200D4C5E06402650A3C
:104F5000002D00D1F6E0280000F0EAFB0300083B3A
:104F60001F2B00DDE9E020223C00D21A9D40D440F6
:104F70009F4025439E4200DDDBE09E1B731C1F2BE0
:104F800000DD0AE120223800D21A290097402C00C7
:104F90009140D8407A1E9741DC40002601430F43E0
:104FA0007B0709D00F233B40042B05D03B1DBB42A0
:104FB000BF417F42E4191F00230225D5864B0136ED
:104FC0009E4200D1AFE0854B01251C40434662075D
:104FD000FF08640276051743240B760D1D4000215F
:104FE0002403230B0C0D7E4A24051C431440330577
:104FF00023435B00ED075B082B43380019001CBC02
:1050000090469946A246F0BD012543466207FF0837
:105010001743E4081D40704B9E4236D024037605AA
:10502000240B760DDBE76346F31A002B00DC94E0DB
:105030006046002835D068488642B1D080273F04BA
:105040003943382B00DCFDE00A43170000217A1EAB
:105050009741574457458041091944420C1923028E
:105060003AD55D4B01369E4200D14BE101225B4BAC
:105070001C407B0817401F43E207174364088FE773
:105080000800104300D024E721E723003B4300D170
:10509000B9E18022120314432403240B9FE72E005E
:1050A0007EE70800104300D1CAE0581E844600285D
:1050B00000D0E7E052445245804164184042241831
:1050C00017000126230207D50226CFE764462C43AA
:1050D00000D1B3E12C0067467B0700D062E763078D
:1050E000FF081F4301254346E4081D4093E7002DB8
:1050F00078D1751C6D056D0D012D00DCF2E0504678
:10510000801A8245BF41651A7F42ED1B8446280202
:1051100000D48CE05046171ABA4292410C1B5542FB
:10512000651B984614E70125434600241D400027CF
:1051300055E72A4CF61A2C4032E73D0028388540C6
:10514000002717E7380000F0F3FA203006E70A439B
:10515000170000217A1E9741EEE6002B00D0E5E013
:10516000731C9C465B055B0D012B00DC9FE01A4B1A
:105170009C4500D1C5E052445245804164184042EC
:105180002418E707520817436408664608E71248E0
:10519000854200D185E01D00BCE629001F3EF1409C
:1051A000202B00D17FE04022D31A9D402F437D1E4B
:1051B000AF4100240F4300268EE72B000F00203B59
:1051C000DF40202D71D040235D1BA9400A43511EB2
:1051D0008A4100211743AFE6FF070000FFFF7FFF72
:1051E000FFFF0F80002E3ED0B34EB44545D0802641
:1051F00036046D423443382D00DDA8E01F2D00DD5C
:105200001FE1202627005046761BB740E8400743A1
:105210005046B040461EB041EC403843171ABA42DF
:1052200092410C1B5242A41A664698468BE664468D
:1052300067462C4300D08BE6002500260027EAE6CF
:105240001E00ADE61F2B60DC2027F81A0F008446F5
:1052500087401000D840074360468240501E82417C
:10526000D9401743F5E626005046064305D0ED43E6
:10527000002DD3D0904EB445BDD10C00170066462A
:1052800098468DE68C4883420BD06346D9E6002DC4
:1052900000D096E00800104300D1E2E00C001700B7
:1052A0009846854E7CE6002580E700218EE72300A6
:1052B00050460343002E00D0A8E0002B00D1DEE0D2
:1052C0000B00134300D16BE65244524580416418F1
:1052D000404224181700230200D4FDE6774B6646AF
:1052E0001C405DE6250050460543002ECFD1002D21
:1052F0004FD10C00144300D1A0E00C0017009846D9
:105300004EE666460024002785E61F000800203F81
:10531000F8400700202B00D18EE04020C31A9940AE
:105320000A43511E8A410021174392E6002E14D1F0
:1053300026005046064362D0DB43002B5CD1871821
:105340009742924164185242A418664687E6504636
:105350002043441EA041002460E7574EB4454ED080
:10536000802636045B423443382B00DD7FE01F2B60
:1053700000DD8BE0202627005046F61AB740D840C3
:1053800007435046B040461EB0410743DC40BF18BB
:10539000D6E70D00154300D102E65046801A82453B
:1053A000BF41651A7F42ED1B8446280200D48DE67A
:1053B0005046171ABA4292410C1B5242A41A984600
:1053C000EEE50D00154300D16BE750466707C008B6
:1053D00007438020E4080003044207D0CD080542BB
:1053E00004D12C009846D70849070F437B0FE400EF
:1053F0001C43FF00304ED3E52F4EB445B4D10C0012
:1054000017006646CCE500270024E8E5002B39D0DC
:105410000B00134300D144E7C0086707074380200F
:10542000E40800030442E1D0CB080342DED1D708F0
:1054300049070F431C00D9E7002171E70025002729
:10544000E9E52E002700203EF740202D2FD04026F2
:10545000751BAC4050462043441EA04100243843F5
:10546000DCE6802400252403134E0027D3E55046B4
:1054700020430700781E87410024BF1860E70C0016
:1054800017008DE50C0017000B4E89E51E00270064
:10549000203EF740202B0CD04026F31A9C4050466B
:1054A0002043441EA04107430024BF1848E70024BE
:1054B000D0E70024F3E7C046FF070000FFFF7FFFAF
:1054C00030B5134D0A034B00120B5B0DC90F0024BE
:1054D000AB4210DD0F4CA3420FDC80240E4D640361
:1054E0002243ED1A1F2D0BDD0C48C31ADA4054423B
:1054F000002900D11400200030BD094BCC18FAE778
:10550000084CE840A44663449A400243EFE7C04693
:10551000FE0300001D04000033040000130400001B
:10552000FFFFFF7FEDFBFFFF70B5002830D0C317F2
:10553000C4185C40C50F200000F0FAF8174B184A59
:105540001B1AD21A1F2A18DD164AD21A94400022BA
:1055500024035B05240B5B0D0021100024030A0DBE
:10556000240B12052243104C1B05224013435B0001
:10557000ED075B082B43190070BD210091400A0024
:105580000B21081AC4405B052403240B5B0DE3E7E1
:105590000025002300240022DEE7C0461E04000090
:1055A0003304000013040000FFFF0F8010B5041E39
:1055B00028D000F0BDF8154B154A1B1AD21A1F2A25
:1055C00015DD144AD21A9440002224035B05240BF3
:1055D0005B0D0021100024030A0D240B1205224349
:1055E0000D4C1B05224013435B00590810BD2100E0
:1055F00091400A000B21081AC4405B052403240BC8
:105600005B0DE6E7002300240022E2E71E04000011
:105610003304000013040000FFFF0F80F0B54C00BE
:10562000640D0B03621C450F5B0A52052B43C90F27
:10563000C500520D012A28DD3A4AA618FE2E1BDCB1
:10564000002E3EDD80010200501E82416D0F2A4374
:10565000DB0013435A0704D00F221A40042A00D05B
:1056600004338022D2041A405AD00136FF2E03D0D0
:105670009B015B0AF4B201E0FF2400235802E40519
:10568000400AC90720430843F0BD002C07D01D4342
:10569000F2D08020DB0080040343FF26DAE72B43AF
:1056A00003D00523DB08FF2C03D05B025B0AE4B2C6
:1056B000E4E7002B32D08020C00303435B025B0A87
:1056C000DCE73200173214DB80221E27120413435A
:1056D000BF1B1F2F0FDC144A944664442A00A540C8
:1056E0002E00A340751EAE41FA40334313430026FB
:1056F000B0E70024D5E702225242961B1A00F2407E
:10570000202F09D0094884466444A3402B435D1EE2
:10571000AB41002613439DE70023F7E70023ADE7E5
:105720003400BFE780FCFFFF82FCFFFFA2FCFFFF0D
:105730001C2101231B04984201D3000C10391B0AC1
:10574000984201D3000A08391B09984201D3000985
:10575000043902A2105C40187047C04604030202DC
:1057600001010101000000000000000070B50026EA
:105770000C4D0D4C641BA410A64209D1002601F06B
:10578000B1F80A4D0A4C641BA410A64205D170BDA5
:10579000B300EB5898470136EEE7B300EB58984753
:1057A0000136F2E7F0680000F0680000F0680000E1
:1057B000F4680000931E10B50C00222B04D90023BE
:1057C0001C000B70200010BD0A2A09D1002807DA3E
:1057D0002D230B7001214042611800F039F9F1E7E7
:1057E0000021F9E710B5FFF7E5FF10BD002310B564
:1057F0009A4200D110BDCC5CC4540133F8E70300D9
:105800008218934200D1704719700133F9E7000004
:1058100070B505000E00002804D08369002B01D16B
:1058200000F014FBAB69AC68002B02D1280000F03B
:105830000DFB244B9C420FD16C68A3891B0702D53A
:105840002369002B20D12100280000F091F90028C5
:105850001AD00120404270BD1B4B9C4201D1AC6864
:10586000EBE71A4B9C42E8D1EC68E6E7013B0136D6
:10587000A360002B04DAA269934216DB0A2914D034
:1058800023685A1C226019703178A3680029EDD171
:10589000013BA360002B0FDA22000A31280000F040
:1058A00011F9431CD5D00A20D5E72200280000F0CA
:1058B00009F9431CE8D1CCE70A2023685A1C22606E
:1058C0001870C8E7A4680000C4680000846800007D
:1058D00010B5034B01001868FFF79AFF10BDC046D2
:1058E000180000204A424A41802310B55200DB00D4
:1058F00000F002F810BD0000F0B51D004F4B85B060
:105900001E6804000F000092002E05D0B369002B22
:1059100002D1300000F09AFA494B9C4250D1746891
:10592000009B022B05D0012B00D984E0002D00DA6A
:1059300081E02100300000F01BFA616B002908D0E3
:1059400023004433994202D0300000F08BFB002347
:1059500063630023A3616360A3891B0603D52169E8
:10596000300000F07FFBA389364A1340A381009BDF
:10597000022B5AD003AB02AA2100300000F0FCFA3F
:10598000A3891843A081002D24D1029D280000F096
:105990005FFB0195071E42D1029B0193AB4239D1B7
:1059A000012040420223A2891343A3810023A36064
:1059B00023004733236023610123636105B0F0BDF9
:1059C000214B9C4201D1B468AAE7204B9C42A7D14D
:1059D000F468A5E7002FD9D0B369002B02D13000BD
:1059E00000F034FA009B012B03D1A389009A1A43DB
:1059F000A2810820A389276027616561184018D01B
:105A0000012018400023984211D06D42A360A56187
:105A10001800D3E7019800F01BFB071EC0D08023BD
:105A2000A289019D1343A381D6E70020BAE7A560B0
:105A3000C4E7A060C2E701204042BFE71800002091
:105A4000A46800005CF3FFFFC468000084680000E5
:105A5000F0B517008FB0252206000D0004A81849E4
:105A6000FFF7C4FE04AABB1E00240392222B05D913
:105A70002C70250028000FB0F0BD019C631C019321
:105A8000EB1800933000013B39000293FDF722FE32
:105A9000039B029A5B5C300013703900FDF794FDA4
:105AA000061EEAD1009B18702B005A1B9442E1DDC0
:105AB0001A78295D19702A550133013CF5E7C04673
:105AC0005C680000F8B505000E001400002804D042
:105AD0008369002B01D100F0B9F9224B9C422DD1F2
